:020000040800F2
:10000000D007002029020008B51B00088F1A00083D
:10001000B11B000863050008B121000800000000C2
:10002000000000000000000000000000BB1B0008F2
:100030009306000800000000B91B0008BD1B000863
:10004000430200084302000843020008430200087C
:10005000430200084302000843020008430200086C
:10006000430200084302000843020008430200085C
:1000700069050008430200087905000843020008EA
:10008000430200084302000843020008430200083C
:10009000430200084302000843020008430200082C
:1000A000430200084302000843020008430200081C
:1000B000430200084302000843020008430200080C
:1000C00043020008430200084302000843020008FC
:1000D00043020008430200084302000843020008EC
:1000E00043020008430200084302000843020008DC
:1000F00043020008430200084302000843020008CC
:1001000043020008430200084302000843020008BB
:1001100043020008430200084302000843020008AB
:10012000430200084302000843020008430200089B
:10013000430200084302000843020008430200088B
:10014000430200084302000843020008430200087B
:10015000430200084302000843020008430200086B
:10016000430200084302000843020008430200085B
:100170004302000843020008430200080000000098
:10018000430200084302000800F002F800F03CF8C7
:100190000AA090E8000C82448344AAF10107DA45E2
:1001A00001D100F031F8AFF2090EBAE80F0013F0F8
:1001B000010F18BFFB1A43F0010318471825000070
:1001C00038250000103A24BF78C878C1FAD8520701
:1001D00024BF30C830C144BF04680C6070470000C1
:1001E0000023002400250026103A28BF78C1FBD840
:1001F000520728BF30C148BF0B6070471FB502F0DF
:1002000054FA1FBD10B510BD00F072F91146FFF78A
:10021000F5FF01F0EBFF00F090F903B4FFF7F2FFF8
:1002200003BC00F097F900000948804709480047DF
:10023000FEE7FEE7FEE7FEE7FEE7FEE7FEE7FEE796
:10024000FEE7FEE704480549054A064B70470000F3
:10025000791C000889010008D0010020D007002087
:10026000D0030020D003002053EA020C00F0698084
:100270002DE9F04B4FF00006002B1FBFB3FA83F5BA
:1002800003FA05F424FA05F65E4012BF1643B2FAEB
:1002900082F502FA05F4C5F120051EBF22FA05FC1D
:1002A00044EA0C04203556EA044C4FEA144418BFC3
:1002B000641C4FF000084FF00009904271EB030CF2
:1002C00039D3002919BFB1FA81F701FA07F6B0FA5C
:1002D00080F700FA07F6C7F120071EBF20FA07FCD7
:1002E00046EA0C062037B6FBF4FCA7EB0507103FE7
:1002F00007F01F0BCBF120060CFA0BFB2CFA06F6CD
:1003000044BFB3460026202FA4BF5E464FF0000B2B
:100310005BEA060C08BF4FF0010B19EB0B09ABFBB6
:10032000027C48EB0608C01B06FB02CC0BFB03CC8F
:1003300071EB0C01C1E70B46024641464846BDE859
:10034000F08B13B54FF000004FF00001AFF30080C9
:10035000BDE81C40704740EA010310B59B070FD170
:10036000042A0DD310C808C9121F9C42F8D020BA25
:1003700019BA884201D9012010BD4FF0FF3010BDDD
:100380001AB1D30703D0521C07E0002010BD10F8AB
:10039000013B11F8014B1B1B07D110F8013B11F871
:1003A000014B1B1B01D1921EF1D1184610BD032A2F
:1003B00040F2308010F0030C00F0158011F8013B82
:1003C000BCF1020F624498BF11F801CB00F8013B69
:1003D00038BF11F8013BA2F1040298BF00F801CB2D
:1003E00038BF00F8013B11F0030300F04F80083ADA
:1003F000C0F0088051F8043B083A51F804CBA0E85B
:100400000810F5E7121D5CBF51F8043B40F8043BAF
:10041000AFF30080D20724BF11F8013B11F801CBE4
:1004200048BF11F8012B24BF00F8013B00F801CBB5
:1004300048BF00F8012B70474FF0000200B513468B
:1004400094469646203922BFA0E80C50A0E80C50F4
:10045000B1F12001BFF4F7AF090728BFA0E80C50A5
:1004600048BF0CC05DF804EB890028BF40F8042B9E
:1004700008BF704748BF20F8022B11F0804F18BF0B
:1004800000F8012B704770477047704710B5203A4D
:10049000C0F00B80B1E81850203AA0E81850B1E83D
:1004A0001850A0E81850BFF4F5AF5FEA027C24BFF3
:1004B000B1E81850A0E8185044BF18C918C0BDE8EA
:1004C00010405FEA827C24BF51F8043B40F8043BB3
:1004D00008BF7047D20728BF31F8023B48BF11F868
:1004E000012B28BF20F8023B48BF00F8012B7047C2
:1004F000754600F02BF8AE4605006946534620F0DD
:100500000700854618B020B5FFF79CFEBDE82040E7
:100510004FF000064FF000074FF000084FF0000BBF
:1005200021F00701AC46ACE8C009ACE8C009ACE872
:10053000C009ACE8C0098D46704710B50446AFF35A
:1005400000802046BDE81040FFF767BE00487047B6
:100550007001002001491820ABBEFEE72600020012
:10056000704700BFFEE7000010B5024800F0EEF84B
:1005700010BD0000B000002010B5024800F0E6F801
:1005800010BD000010010020014608781038182323
:10059000B0FBF3F20848805CC865032A05D90868F7
:1005A0006FF30900001D886503E008686FF3090018
:1005B0008865886D70470000B42600080146002059
:1005C0008A6A8B69CBB932B1012A0DD0022A03D0D5
:1005D000032A10D10EE000BFCB6A03F08073B3F1A1
:1005E000807F00D1012007E0CB6AB3F1C07F00D14A
:1005F000012001E000E000BF34E08B69B3F5005F4B
:100600001AD132B1012A07D0022A03D0032A11D10C
:100610000AE000BF01200EE0CB6A03F08073B3F163
:10062000807F00D1012006E0CB6AB3F1C07F00D10A
:10063000012000E000BF15E032B1012A05D0022AF6
:1006400004D0032A0CD103E000BF00BF012008E062
:10065000CB6A03F08073B3F1807F00D1012000E00A
:1006600000BF00BF704730B50468246824F48024BC
:1006700005682C60046863608468402C04D10468B9
:10068000A2600468E16003E00468A1600468E260BD
:1006900030BD704772B600BFFEE770B50446A56D69
:1006A00000F042FB064694F83500022808D080206E
:1006B000606500BF002084F8340000BF012070BDD9
:1006C0002068006820F016002168086020684069F2
:1006D00020F0800021684861206C08B9A06C28B126
:1006E0002068006820F00800216808602068006821
:1006F00020F001002168086010E000F015FB801B6D
:1007000005280BD920206065032084F8350000BF40
:10071000002084F8340000BF0320D0E72068006880
:1007200000F001000028E8D194F85C103F208840D8
:10073000A860012084F8350000BF002084F8340050
:1007400000BF00BFBBE70146486D7047F8B50446DF
:10075000002000908C4800684FF41651B0FBF1F770
:10076000A56D2E6894F85C1008208840304098B140
:100770002068006800F0040070B12068006820F074
:1007800004002168086094F85C1008208840A86084
:10079000606D40F00100606594F85C1001208840B5
:1007A000304068B12068406900F0800040B194F8A2
:1007B0005C1001208840A860606D40F00200606518
:1007C00094F85C1004208840304068B120680068CC
:1007D00000F0020040B194F85C1004208840A8604A
:1007E000606D40F00400606594F85C101020884053
:1007F000304078B32068006800F0080050B394F8E7
:100800005C1010208840A8602068006800F48020F8
:1008100080B12068006800F4002028B9206CC8B1BD
:100820002046216C884715E0A06C98B12046A16C49
:1008300088470FE02068006800F4807028B92068BD
:10084000006820F0080021680860206C10B1204684
:10085000216C884794F85C102020884030400028A4
:1008600065D02068006800F0100000285FD094F880
:100870005C1020208840A86094F83500052828D115
:100880002068006820F01600216808602068406930
:1008900020F0800021684861206C08B9A06C28B164
:1008A0002068006820F008002168086094F85C1057
:1008B0003F208840A860012084F8350000BF002058
:1008C00084F8340000BF206D10B12046216D8847A8
:1008D000F8BD2068006800F4802080B120680068BE
:1008E00000F4002028B9606C10B12046616C884784
:1008F0001DE0E06BD8B12046E16B884717E0206827
:10090000006800F4807068B92068006820F010006A
:1009100021680860012084F8350000BF002084F8B9
:10092000340000BFE06B10B12046E16B8847606D7A
:1009300038B3606D00F00100F0B1052084F8350097
:100940002068006820F001002168086000BF00985E
:10095000401C0090B84200D905E02068006800F013
:1009600001000028F3D100BF012084F8350000BF4A
:10097000002084F8340000BFE06C10B12046E16C28
:10098000884700BFA4E700001C0000202DE9F041CB
:100990000446002500F0C8F9074614B90120BDE857
:1009A000F081606A00B100BF022084F8350000BF0A
:1009B000002084F8340000BF2068006820F00100A7
:1009C000216808600AE000F0AFF9C01B052805D9CE
:1009D00020206065032084F83500E0E72068006887
:1009E00000F001000028EED120680568214805408C
:1009F000D4E901010843E1680843216908436169BA
:100A00000843A1690843E1690843216A0843054393
:100A1000606A042803D1D4E90B0108430543206828
:100A200005602068456925F00705606A0543606A2E
:100A300004280DD1A06A0543E06A48B12046FFF7BB
:100A4000BDFD28B140206065012084F83500A6E78F
:100A5000206845612046FFF797FD064694F85C1034
:100A60003F208840B06000206065012084F8350098
:100A7000002094E73F8010F02DE9F04704460D4632
:100A800016461F464FF00008D4F8589000BF94F85F
:100A90003400012802D10220BDE8F087012084F84B
:100AA000340000BF94F83500012825D1022084F8D5
:100AB0003500002060653B46324629462046FFF758
:100AC000D2FD94F85C103F208840C9F808002068E7
:100AD000006840F0160021680860206C28B120688A
:100AE000006840F00800216808602068006840F055
:100AF00001002168086006E000BF002084F834008F
:100B000000BF4FF002084046C6E7000070B504463B
:100B100000F00AF906462546681C10B10448007822
:100B2000054400BF00F000F9801BA842FAD370BD55
:100B300018000020F8B502460B46002500240020CE
:100B40000021D6E0012606FA01F51E6806EA050432
:100B5000AC4274D11E7906F00306012E04D01E7932
:100B600006F00306022E13D190684F000326BE4004
:100B7000B0434F00DE68BE403043906050680126AD
:100B80008E40B0431E79C6F300168E40304350604D
:100B90001E7906F00306032E09D0D0684F00032605
:100BA000BE40B0434F009E68BE403043D0601E79C7
:100BB00006F00306022E13D1CF0802F1200656F8E4
:100BC00027004E07F70E0F26BE40B0434F07FF0E1B
:100BD0001E69BE403043CF0802F1200646F82700C8
:100BE00010684F000326BE40B0431E7906F003068E
:100BF0004F00BE40304310605E6806F44036002E61
:100C000076D000BF002600963C4E366846F48046FB
:100C10003A4F3E603E46366806F48046009600BF76
:100C200000BF374E8F0856F827008E07370F0F2664
:100C3000BE40B043334EB24202D1002624E057E01A
:100C4000314EB24201D101261EE0304EB24201D1F6
:100C5000022619E02E4EB24201D1032614E02D4E99
:100C6000B24201D104260FE02B4EB24201D105263B
:100C70000AE02A4EB24201D1062605E0284EB242D1
:100C800001D1072600E008268F073F0FBE40304302
:100C90001B4E8F0846F82700224E3068A0435E683E
:100CA00006F4801606B120431E4E3060361D3068B3
:100CB000A0435E6806F4001606B12043194E361DA7
:100CC0003060184E361F3068A0435E6806F4003668
:100CD00006B12043134E361F3060361F3068A043E4
:100CE0005E6806F4803606B120430E4E083E306042
:100CF000491C1029FFF426AFF8BD0000443802401B
:100D00000838014000000240000402400008024090
:100D1000000C024000100240001402400018024083
:100D2000001C0240083C0140014800687047000078
:100D3000100000200348006803490978084401496D
:100D400008607047100000201800002010B50D4802
:100D5000006840F400700B4908600846006840F4E1
:100D6000806008600846006840F4807008600320D6
:100D700000F0A6F80F2000F007F800F02BF8002094
:100D800010BD0000003C024070B504460E480078DB
:100D90004FF47A71B1FBF0F00C490968B1FBF0F542
:100DA000284600F02FFC08B1012070BD102C07D29E
:100DB00000222146501E00F045F80548046001E07D
:100DC0000120F2E70020F0E7180000201C000020BE
:100DD0001400002008B500BF002000900E480068F5
:100DE00040F480400C4908600846006800F48040E8
:100DF000009000BF00BF00BF00200090081F0068E7
:100E000040F08050091F08600846006800F08050DC
:100E1000009000BF00BF08BD4438024001460846AC
:100E200000280DDB00BF00BF00F01F0301229A4025
:100E300043099B0003F1E023C3F8002100BF00BF7A
:100E400000BF70472DE9F05F80460D46164600272B
:100E500001F0B0F9074639462A46334601F007004B
:100E6000C0F1070ABAF1040F02D94FF0040A01E0F9
:100E7000C0F1070AD14600F1040ABAF1070F02D205
:100E80004FF0000A01E0A0F1030AD4464FF0010A36
:100E90000AFA09FAAAF1010A0AEA020A0AFA0CFA9B
:100EA0004FF0010B0BFA0CFBABF1010B0BEA030B40
:100EB0004AEA0B042146404601F084F9BDE8F09F60
:100EC00000BF00F00702064B19684FF6FF031940F8
:100ED000044B0B4343EA0221014B196000BF7047EA
:100EE0000CED00E00000FA0570B504460D460CB9A3
:100EF000012070BD5848006800F00700A84209D2E0
:100F000055490D700846006800F00700A84201D05E
:100F10000120EEE7207800F0020002281DD12078A1
:100F200000F00400042805D14C48006840F4E0506B
:100F30004A490860207800F00800082805D1474891
:100F4000006840F46040454908604448006820F06B
:100F5000F000A168084341490860207800F00100D2
:100F6000A8B36068012807D13C4808380068C0F37E
:100F70004040B8B90120BCE76068022802D0606830
:100F8000032807D1354808380068C0F3406048B9E5
:100F90000120AEE7314808380068C0F3400008B9C6
:100FA0000120A6E72D48006820F00300616808438F
:100FB0002A490860FFF7B8FE064609E0FFF7B4FECD
:100FC000801B41F28831884202D9032091E707E073
:100FD0002248006800F00C006168B0EB810FEDD191
:100FE0001D48006800F00700A84209D91A490D7091
:100FF0000846006800F00700A84201D0012078E709
:10100000207800F00400042807D11448006820F478
:10101000E050E168084311490860207800F00800BA
:10102000082808D10D48006820F46040216940EA92
:10103000C1000A49086000F03FF808490968C1F397
:101040000311074A515CC840064908600648006819
:10105000FFF79AFE00204CE7003C024008380240AF
:10106000BC2600081C000020140000200148006875
:10107000704700001C00002000B5FFF7F7FF04498F
:101080000968C1F38221034A515CC84000BD0000D9
:1010900008380240CC26000800B5FFF7E7FF0449F6
:1010A0000968C1F34231034A515CC84000BD0000E9
:1010B00008380240CC2600082DE9F047002400251E
:1010C0000026A1462548006800F00C0020B1042845
:1010D00005D008283AD105E0DFF8849039E0DFF840
:1010E000849036E01D48001F006800F03F041B4854
:1010F000001F006800F4800078B11A481749091FE2
:101100000968C1F38811A0FB017001462246002343
:101110003846FFF7A9F805460EE011480F49091FA8
:101120000968C1F38811A0FB017001462246002323
:101130003846FFF799F805460848001F0068C0F3D5
:101140000140401C4600B5FBF6F902E0DFF81090C4
:1011500000BF00BF4846BDE8F087000008380240E5
:101160000024F40040787D01F8B504460CB9012054
:10117000F8BD207800F00100002874D0F94800681C
:1011800000F00C0004280DD0F648006800F00C00B8
:10119000082813D1F348001F006800F48000B0F560
:1011A000800F0BD1EF4808380068C0F3404000289A
:1011B00059D06068002856D10120D9E700BF606887
:1011C000B0F5803F08D1E7480838006840F4803027
:1011D000E449083908601EE06068B0F5A02F0DD121
:1011E000E0480838006840F48020DE49083908608B
:1011F0000846006840F4803008600CE0D9480838A0
:10120000006820F48030D749083908600846006833
:1012100020F48020086000BF606890B1FFF784FD73
:10122000054606E0FFF780FD401B642801D9032036
:101230009EE7CC4808380068C0F340400028F1D051
:1012400011E0FFF771FD054606E0FFF76DFD401B5D
:10125000642801D903208BE7C24808380068C0F32E
:1012600040400028F1D1207800F0020002285FD130
:10127000BC48006800F00C0058B1BA48006800F0A3
:101280000C0008281CD1B748001F006800F480003B
:10129000B0B9B44808380068C0F3400020B1E06835
:1012A000012801D0012063E7AE480838006820F02B
:1012B000F800216940EAC100AA490839086037E00E
:1012C000E06800B30120A8490860FFF72DFD05463E
:1012D00006E0FFF729FD401B022801D9032047E75C
:1012E000A04808380068C0F340000028F1D09D48AD
:1012F0000838006820F0F800216940EAC1009949E7
:101300000839086014E0002097490860FFF70CFDD9
:10131000054606E0FFF708FD401B022801D903201F
:1013200026E7904808380068C0F340000028F1D153
:10133000207800F0080008282CD16069A8B10120AD
:101340008A490860FFF7F0FC054606E0FFF7ECFC71
:10135000401B022801D903200AE782486C3000684C
:10136000C0F340000028F1D014E000207F4908605D
:10137000FFF7DAFC054606E0FFF7D6FC401B022823
:1013800001D90320F4E677486C300068C0F34000D0
:101390000028F1D1207800F00400042870D1002743
:1013A00070483830006800F0805090B900BF0020CD
:1013B00000906C483830006840F0805069493831FE
:1013C00008600846006800F08050009000BF00BF31
:1013D00001276748006800F48070B0B9644800686D
:1013E00040F4807062490860FFF79EFC054606E005
:1013F000FFF79AFC401B022801D90320B8E65C489D
:10140000006800F480700028F2D000BFA0680128B6
:1014100008D154486830006840F0010051496831F3
:1014200008601DE0A06805280DD14E4868300068AE
:1014300040F004004B49683108600846006840F0FD
:10144000010008600CE047486830006820F00100A7
:101450004449683108600846006820F004000860CC
:1014600000BFA068A8B1FFF75FFC054609E0FFF7E1
:101470005BFC401B41F28831884202D9032077E6A9
:1014800026E0384868300068C0F340000028EED0FD
:1014900013E0FFF749FC054608E0FFF745FC401B59
:1014A00041F28831884201D9032061E62D48683035
:1014B0000068C0F340000028EFD1012F07D1294870
:1014C0003830006820F0805026493831086000BF6D
:1014D000A069002845D02348006800F00C000828C7
:1014E0005DD0A069022845D100201F490866FFF79A
:1014F0001BFC054606E0FFF717FC401B022801D93C
:10150000032035E6174808380068C0F3406000281B
:10151000F1D1D4E907010843616A40EA811101224F
:10152000A06AC2EB500041EA00412C20005D41EA74
:1015300000600C49091F086001200B490866FFF78D
:10154000F3FB054606E0FFF7EFFB401B022801D93D
:1015500003200DE6034808380068C0F34060002807
:10156000F1D049E00838024000004742800E47426F
:1015700000700040002021490866FFF7D5FB0546B2
:1015800006E0FFF7D1FB401B022801D90320EFE55D
:101590001B480068C0F340600028F2D12CE0A0692D
:1015A000012800D1E4E51648001D0668A06901285D
:1015B00020D006F48001E06981421BD106F03F0192
:1015C000206A814216D147F6C0703040616AB0EBA4
:1015D000811F0FD106F440310122A06AC2EB5000F6
:1015E000B1EB004F06D106F070612C20005DB1EB2D
:1015F000006F01D00120BBE50020B9E500004742A3
:101600000038024070B504462546681EB0F1807F60
:1016100001D301200FE0681E4FF0E02148610F2147
:101620004FF0FF3000F0CEFD00204FF0E021886148
:1016300007200861002070BD704710B5044600BF48
:1016400000BF21680C3151E8001F21F4907021681F
:101650000C3141E80002002AF3D100BF00BF00BFF7
:101660002168143151E8001F21F001002168143174
:1016700041E80002002AF3D100BF206B01280ED1FF
:1016800000BF00BF21680C3151E8001F21F010009D
:1016900021680C3141E80002002AF3D100BF206824
:1016A000406900F04000402820D100BF00BF216801
:1016B000143151E8001F21F040002168143141E845
:1016C0000002002AF3D100BFE06B78B10020E16B8B
:1016D0000865E06BFEF7E1FF40B1E06BFFF733F820
:1016E000202803D110206064032010BD0020E08575
:1016F000202084F842000020206300BFF5E710B5E9
:10170000044600BF00BF21680C3151E8001F21F0E2
:10171000C00021680C3141E80002002AF3D100BF6B
:101720002068406900F08000802820D100BF00BF01
:101730002168143151E8001F21F080002168143124
:1017400041E80002002AF3D100BFA06B78B100206D
:10175000A16B0865A06BFEF7A0FF40B1A06BFEF780
:10176000F2FF202803D110206064032010BD002068
:10177000E084202084F841000020F7E703498842F4
:1017800002D10121024A1170704700006800002058
:101790000200002010B504460CB9012010BDA0695C
:1017A00000B100E000BF94F8410028B9002084F89F
:1017B0004000204600F02AF8242084F841002068E8
:1017C000C06820F400502168C860204600F06EFB1D
:1017D0002068006920F49040216808612068406911
:1017E00020F02A00216848612068C06840F4005059
:1017F0002168C86000206064202084F8410084F8DB
:1018000042000020606300BFC8E7000010B586B04A
:101810000446142101A8FEF70FFE554920688842AE
:1018200031D100BF002000905248006840F0100005
:10183000504908600846006800F01000009000BFA2
:1018400000BF00BF002000904A481438006840F0F4
:1018500001004849143908600846006800F001009A
:10186000009000BF00BF4FF4C060019002200290C2
:1018700000200390032004900720059001A93E4812
:10188000FFF758F972E03D49206888426ED100BFE9
:10189000002000903748001F006840F48020354940
:1018A000091F08600846006800F48020009000BF0F
:1018B00000BF00BF002000902E481438006840F0A0
:1018C00002002C49143908600846006800F0020044
:1018D000009000BF00BF4FF44060019002200290D2
:1018E00000200390032004900720059001A92448BC
:1018F000FFF720F92348244908604FF00060486052
:10190000002121488160C1604FF4806101610021A4
:1019100041618161C16101624162FFF737F808B13D
:10192000FEF7B8FE00BF1848E063846300BF1548A7
:101930003030164908604FF000604860402113487D
:1019400081600021C1604FF480610161002141612B
:101950008161C16101624162FFF718F808B1FEF7C9
:1019600099FE00BF0948A063846300BF06B010BDA4
:10197000001001404438024000000240004800408E
:101980000004024028600240B00000201001002046
:1019900070B504460D46164694F8420020280BD137
:1019A00005B10EB9012070BD0020206332462946E2
:1019B000204600F091FBF6E70220F4E70349884255
:1019C00002D10121024A1170704700006800002016
:1019D0000100002070470000F7B50446154694F852
:1019E000410020283ED1019800B10DB90120FEBD73
:1019F00001982062A584E58400206064212084F899
:101A000041001948A16BC8631848A16B08641848C5
:101A1000A16BC8640020A16B086501AE23681A1D84
:101A200031682B46A06BFFF727F830B110206064B7
:101A3000202084F841000120D9E76FF040002168A0
:101A4000086000BF00BF2168143151E8001F41F059
:101A500080002168143141E80002002AF3D100BF60
:101A60000020C4E70220C2E7B51D00080D1E0008D3
:101A70008D1C00080349884202D10121024A1170DD
:101A8000704700006800002000000020704700BF81
:101A9000FEE7000008B500BF002000900E48006877
:101AA00040F400100C4908600846006800F400107B
:101AB000009000BF00BF002211460C20FFF7C2F9C2
:101AC0000C20FFF7ABF9002211460E20FFF7BAF900
:101AD0000E20FFF7A3F908BD3038024008B500BF5B
:101AE000002000901548006840F08000134908600D
:101AF0000846006800F08000009000BF00BF00BFF3
:101B0000002000900846006840F002000860084687
:101B1000006800F00200009000BF00BF00BF00207E
:101B200000900846006840F0010008600846006820
:101B300000F00100009000BF00BF08BD3038024037
:101B400010B50B480B4908604FF4E13048600021A4
:101B500008488160C16001610C21416100218161FF
:101B6000C161FFF717FE08B1FEF794FD10BD00003C
:101B7000001001402000002010B50B480B49086000
:101B80004FF4E1304860002108488160C160016184
:101B90000C21416100218161C161FFF7FBFD08B1AA
:101BA000FEF778FD10BD00000048004068000020EE
:101BB00000BFFEE700BFFEE77047704710B5FFF7B4
:101BC000B9F810BD00B593B0302107A8FEF734FC7A
:101BD000142102A8FEF730FC00BF00200190244829
:101BE000006840F08050224908600846006800F014
:101BF0008050019000BF00BF00BF002001901D4831
:101C0000006840F480401B4908600846006800F402
:101C10008040019000BF00BF0120079000040890A1
:101C200002200D9041050E9119210F914FF4A871DA
:101C30001091022111910421129107A8FFF794FA43
:101C400008B1FEF727FD0F2002900220039000202C
:101C500004904FF4A05005904FF480500690052159
:101C600002A8FFF741F908B1FEF714FD13B000BD5B
:101C700040380240007000400348006840F47000A3
:101C8000014908607047000088ED00E070B5064625
:101C90000025B46B20684069C0F3C01594F841007A
:101CA000212805D125B10020E084204600F0EBF882
:101CB00020684069C0F3801594F84200222805D1BD
:101CC00025B10020E085204600F0A7F8606C40F0C8
:101CD000100060642046FFF751FD70BD70B50546E9
:101CE000AC6B2868006800F48070002842D1E08561
:101CF00000BF00BF21680C3151E8001F21F4807043
:101D000021680C3141E80002002AF3D100BF00BF76
:101D100000BF2168143151E8001F21F00100216843
:101D2000143141E80002002AF3D100BF00BF00BF18
:101D30002168143151E8001F21F04000216814315E
:101D400041E80002002AF3D100BF202084F84200BD
:101D5000206B01280ED100BF00BF21680C3151E873
:101D6000001F21F0100021680C3141E80002002A18
:101D7000F3D100BF00206063206B012804D1A18D46
:101D80002046FFF759FC02E02046FFF717FE70BD22
:101D900070B50546AC6B01206063206B012805D14E
:101DA000A08D41082046FFF747FC02E02046FFF7E0
:101DB00011FE70BD70B50546AC6B2868006800F474
:101DC0008070F8B90020E08400BF00BF21681431A2
:101DD00051E8001F21F080002168143141E8000221
:101DE000002AF3D100BF00BF00BF21680C3151E8C9
:101DF000001F41F0400021680C3141E80002002A38
:101E0000F3D102E02046FFF735FE70BD70B5044601
:101E1000A56B2846FFF73AFE70BD00BF00BF026801
:101E20000C3252E8002F22F4907102680C3242E822
:101E30000013002BF3D100BF00BF00BF02681432B3
:101E400052E8002F22F001010268143242E8001328
:101E5000002BF3D100BF016B01290ED100BF00BFE1
:101E600002680C3252E8002F22F0100102680C3296
:101E700042E80013002BF3D100BF202180F842106C
:101E800000210163704700BF00BF02680C3252E8B6
:101E9000002F22F0C00102680C3242E80013002B30
:101EA000F3D100BF202180F8411070472DE9F84F91
:101EB00004462068006920F44050E1680843216826
:101EC00008612169A068084361690843E169084322
:101ED00000902068C06849F20C618843009908436B
:101EE0002168C8602068406920F44070A1690843F7
:101EF0002168486176492068884203D07549206886
:101F0000884203D1FFF7C8F8814602E0FFF7B4F832
:101F10008146E069B0F5004F6CD102206168A0FBFA
:101F2000015003461920A9FB007001462A46384695
:101F3000FEF79AF96421B0FBF1F04FEA001A022093
:101F40006168A0FB01510B461920A9FB00712A46CC
:101F50003846FEF789F9834602206168A0FB0150EC
:101F600003461920A9FB00712A463846FEF77CF982
:101F70006421B0FBF1F000EBC00101EB0010ABEB12
:101F80008000322101EBC0006421B0FBF1F000F0D1
:101F9000F8000AEB400A02206168A0FB01500346EA
:101FA0001920A9FB007001462A463846FEF75CF965
:101FB000834602206168A0FB015003461920A9FB5B
:101FC00000712A463846FEF74FF96421B0FBF1F064
:101FD00000EBC00101EB0010ABEB8000322101EB04
:101FE000C0006421B0FBF1F000F00700504421680C
:101FF00088606AE004206168A0FB01500346192054
:10200000A9FB007001462A463846FEF72DF98246A4
:1020100004206168A0FB015003461920A9FB007051
:1020200001462A463846FEF71FF96421B0FBF1F05D
:1020300000EBC00101EB0010AAEB8000322101EBA4
:1020400000106421B0FBF1F000F0F00A0420616898
:10205000A0FB017003461920A9FB00513A4628460F
:10206000FEF702F96421B0FBF1F00AEB001A04203C
:102070006168A0FB01510B461920A9FB00712A469B
:102080003846FEF7F1F8834604206168A0FB015052
:1020900003461920A9FB007001462A463846FEF780
:1020A000E3F86421B0FBF1F000EBC00101EB00109C
:1020B000ABEB8000322101EB00106421B0FBF1F0AA
:1020C00000F00F00504421688860BDE8F88F0000E0
:1020D000001001400014014077B581B00446154658
:1020E0000298A062A58500206064222084F8420046
:1020F0002C48E16BC8632C48E16B08642B48E16B0A
:10210000C8640020E16B086502AE32682368191DBF
:102110002B46E06BFEF7B0FC38B110206064202045
:1021200084F84200012004B070BD00BF0020009080
:1021300020680068009020684068009000BF00BFE1
:10214000206970B100BF00BF21680C3151E8001F49
:1021500041F4807021680C3141E80002002AF3D17B
:1021600000BF00BF00BF2168143151E8001F41F0DB
:1021700001002168143141E80002002AF3D100BFB8
:1021800000BF00BF2168143151E8001F41F040003A
:102190002168143141E80002002AF3D100BF002079
:1021A000C1E70000DD1C0008911D00088D1C00081F
:1021B00000BFFEE702480068C0F30220704700003D
:1021C0000CED00E010B5002804DB0A07130E054AE9
:1021D000135406E00A07140E034A00F00F031B1FF6
:1021E000D45410BD00E400E018ED00E0FEF7AEFDB1
:1021F000FFF7E8FCFFF772FCFFF74CFCFFF7A0FCD1
:10220000FFF7BAFC00F0FEF91CE04FF4967000F006
:10221000E9F90A20FEF77AFC4FF496710A4800F0BB
:10222000FBF90A20FEF772FC4FF496714FF47A70B6
:1022300000F00CFA4FF4967000F0D4F94FF4FA70F5
:10224000FEF764FCE1E7000008000020014609B940
:1022500000207047032901D10320FAE70520F8E7A1
:1022600030B502460C464FF6FF71002300250AB92F
:10227000002030BD002312E0D05C414000250AE080
:1022800001F0010020B14AF2010080EA610100E0A2
:102290004910681CC5B2082DF2D3581C83B2A34262
:1022A000EADB0846E5E7000000200349087003491F
:1022B00008700349087070470000002001000020EA
:1022C000020000202DE9FF4FC7B00E4614461F46FE
:1022D000DDF854B1DDF850A1002046904FF4807134
:1022E00006A8FEF7A9F84FF0000900200590002588
:1022F00024B17D2C02D80FB1A24503DA01204BB0E6
:10230000BDE8F08F300A8DF81801F0B28DF8190190
:10231000200A8DF81A01E0B28DF81B01052000EBB0
:1023200044001FFA80F905A806A9042346AACDE9AE
:10233000020BCDE900191946479800F027F88046AE
:10234000B8F1000F01D04046D9E7BDF81400484568
:1023500005D19DF81A006106090E884201D00420BB
:10236000CDE700250DE06800001D06A9095C6800A6
:10237000C01C06AA105C41EA002027F81500681C62
:1023800085B2A542EFDB0020B9E700002DE9FF4F41
:1023900083B08046894610AC94E8300C002002904F
:1023A000019024B1BAF1000F01D0052D03D2012014
:1023B00007B0BDE8F08FCDF800B049464046DDE9F2
:1023C000052300F047F806460EB13046F0E700203E
:1023D0001D4908701D4908702A4621461C48FFF710
:1023E000D7FA07461FB13846FFF730FFE0E75946F6
:1023F000154800F0DDF8064626B11548FFF71DF92F
:102400003046D5E7AAF800502078404504D16078DE
:1024100000F07F00484501D00420C9E7A81E215CD8
:10242000681E205C41EA00200290A81E81B220466E
:10243000FFF716FF0190DDE90110884201D002206C
:10244000B6E70020B4E700000100002002000020F1
:10245000680000202DE9F04FC3B081468A46164639
:102460001C46DDF830B14FF4807103A8FDF7E4FF9E
:10247000002500200290019024B11EB9012043B034
:10248000BDE8F08F201D80B2B0F5807F01D901201A
:10249000F5E78DF80C908DF80DA02CB12246314651
:1024A0000DF10E00FDF783FFA01C85B2294603A89D
:1024B000FFF7D6FE029003A9029848550298010A38
:1024C00003AA681C1154A81C85B200201849087082
:1024D000184908702A4603A91748FFF77DFA0746EE
:1024E0001FB13846FFF7B2FEC9E75946104800F061
:1024F0005FF88046B8F1000F04D00F48FFF7FFF8EF
:102500004046BCE7FEF710FC019007E0FEF70CFC2C
:102510000199401A584501D30320B0E706480068E6
:102520000068C0F380100028F0D00020A7E700006A
:102530000000002002000020680000202DE9F0418A
:1025400088B080460C4615461E4600200790059030
:1025500006900490200A8DF81C00E0B28DF81D0052
:10256000280A8DF81E00E8B28DF81F0004A8082183
:1025700005AA0423CDE90206CDE9002107AA062118
:102580004046FFF703FF07461FB1384608B0BDE8D5
:10259000F081BDF81000082805D1042207A9881F82
:1025A000FDF7D9FE08B10420F0E70020EEE70000B7
:1025B00070B504460D46FEF7B7FB06460BE008482B
:1025C000007808B1052070BDFEF7AEFB801BA84265
:1025D00001D30320F7E720780028F0D00020F2E7AD
:1025E0000200002010B5044605480088401C04493C
:1025F000088021460248008800F03EF810BD000027
:102600000400002010B5FFF74FFE002001490880AC
:1026100010BD0000040000207CB504460D460CB936
:1026200001207CBD01202346024641F28831CDE9DC
:102630000005FFF747FEF4E770B504460D46A1B26A
:102640002A4641F2727000F025F870BD70B504465C
:102650000D46002614F5A02F02DB0648844201DD5A
:10266000012070BD0A2094FBF0F6294630B2FFF736
:10267000E3FFF6E7F6FF040070B504460D46044894
:1026800004802A46214641F2707000F003F870BDC4
:102690000400002070B504460D46164633462A460F
:1026A00021460120FFF74AFF70BD4FF04070E1EE78
:1026B000100A7047000610160006101600000000F1
:1026C00000000000010203040607080900000000E2
:1026D00001020304F426000800000020200000008E
:1026E000C40100081427000820000020B0070000E3
:1026F000E00100080000000000000000640000008D
:1027000000000000000000001000000001000000B8
:042710000024F400AD
:040000050800018965
:00000001FF
