:020000040800F2
:100000001007002029020008491400086D13000899
:1000100045140008630500084518000800000000AA
:100020000000000000000000000000004F14000865
:1000300067050008000000004D1400085114000876
:10004000430200084302000843020008430200087C
:10005000430200084302000843020008430200086C
:10006000430200084302000843020008430200085C
:10007000430200084302000843020008430200084C
:10008000430200084302000843020008430200083C
:10009000430200084302000843020008430200082C
:1000A000430200084302000843020008430200081C
:1000B000430200084302000843020008430200080C
:1000C00043020008430200084302000843020008FC
:1000D00043020008430200084302000843020008EC
:1000E00043020008430200084302000843020008DC
:1000F00043020008430200084302000843020008CC
:1001000043020008430200084302000843020008BB
:1001100043020008430200084302000843020008AB
:10012000430200084302000843020008430200089B
:10013000430200084302000843020008430200088B
:10014000430200084302000843020008430200087B
:10015000430200084302000843020008430200086B
:10016000430200084302000843020008430200085B
:100170004302000843020008430200080000000098
:10018000430200084302000800F002F800F03CF8C7
:100190000AA090E8000C82448344AAF10107DA45E2
:1001A00001D100F031F8AFF2090EBAE80F0013F0F8
:1001B000010F18BFFB1A43F001031847781A00001B
:1001C000981A0000103A24BF78C878C1FAD85207AC
:1001D00024BF30C830C144BF04680C6070470000C1
:1001E0000023002400250026103A28BF78C1FBD840
:1001F000520728BF30C148BF0B6070471FB501F0E0
:1002000008FD1FBD10B510BD00F072F91146FFF7D3
:10021000F5FF01F035FB00F090F903B4FFF7F2FFB2
:1002200003BC00F097F900000948804709480047DF
:10023000FEE7FEE7FEE7FEE7FEE7FEE7FEE7FEE796
:10024000FEE7FEE704480549054A064B70470000F3
:100250000D1500088901000810010020100700207A
:10026000100300201003002053EA020C00F0698004
:100270002DE9F04B4FF00006002B1FBFB3FA83F5BA
:1002800003FA05F424FA05F65E4012BF1643B2FAEB
:1002900082F502FA05F4C5F120051EBF22FA05FC1D
:1002A00044EA0C04203556EA044C4FEA144418BFC3
:1002B000641C4FF000084FF00009904271EB030CF2
:1002C00039D3002919BFB1FA81F701FA07F6B0FA5C
:1002D00080F700FA07F6C7F120071EBF20FA07FCD7
:1002E00046EA0C062037B6FBF4FCA7EB0507103FE7
:1002F00007F01F0BCBF120060CFA0BFB2CFA06F6CD
:1003000044BFB3460026202FA4BF5E464FF0000B2B
:100310005BEA060C08BF4FF0010B19EB0B09ABFBB6
:10032000027C48EB0608C01B06FB02CC0BFB03CC8F
:1003300071EB0C01C1E70B46024641464846BDE859
:10034000F08B13B54FF000004FF00001AFF30080C9
:10035000BDE81C40704740EA010310B59B070FD170
:10036000042A0DD310C808C9121F9C42F8D020BA25
:1003700019BA884201D9012010BD4FF0FF3010BDDD
:100380001AB1D30703D0521C07E0002010BD10F8AB
:10039000013B11F8014B1B1B07D110F8013B11F871
:1003A000014B1B1B01D1921EF1D1184610BD032A2F
:1003B00040F2308010F0030C00F0158011F8013B82
:1003C000BCF1020F624498BF11F801CB00F8013B69
:1003D00038BF11F8013BA2F1040298BF00F801CB2D
:1003E00038BF00F8013B11F0030300F04F80083ADA
:1003F000C0F0088051F8043B083A51F804CBA0E85B
:100400000810F5E7121D5CBF51F8043B40F8043BAF
:10041000AFF30080D20724BF11F8013B11F801CBE4
:1004200048BF11F8012B24BF00F8013B00F801CBB5
:1004300048BF00F8012B70474FF0000200B513468B
:1004400094469646203922BFA0E80C50A0E80C50F4
:10045000B1F12001BFF4F7AF090728BFA0E80C50A5
:1004600048BF0CC05DF804EB890028BF40F8042B9E
:1004700008BF704748BF20F8022B11F0804F18BF0B
:1004800000F8012B704770477047704710B5203A4D
:10049000C0F00B80B1E81850203AA0E81850B1E83D
:1004A0001850A0E81850BFF4F5AF5FEA027C24BFF3
:1004B000B1E81850A0E8185044BF18C918C0BDE8EA
:1004C00010405FEA827C24BF51F8043B40F8043BB3
:1004D00008BF7047D20728BF31F8023B48BF11F868
:1004E000012B28BF20F8023B48BF00F8012B7047C2
:1004F000754600F02BF8AE4605006946534620F0DD
:100500000700854618B020B5FFF79CFEBDE82040E7
:100510004FF000064FF000074FF000084FF0000BBF
:1005200021F00701AC46ACE8C009ACE8C009ACE872
:10053000C009ACE8C0098D46704710B50446AFF35A
:1005400000802046BDE81040FFF767BE00487047B6
:10055000AC00002001491820ABBEFEE726000200D7
:10056000704700BFFEE7704772B600BFFEE70000AD
:1005700070B5044600F00AF906462546681C10B11D
:1005800004480078054400BF00F000F9801BA84231
:10059000FAD370BD14000020F8B502460B460025C2
:1005A000002400200021D6E0012606FA01F51E688D
:1005B00006EA0504AC4274D11E7906F00306012E4A
:1005C00004D01E7906F00306022E13D190684F0066
:1005D0000326BE40B0434F00DE68BE40304390600B
:1005E000506801268E40B0431E79C6F300168E4037
:1005F000304350601E7906F00306032E09D0D06800
:100600004F000326BE40B0434F009E68BE403043BB
:10061000D0601E7906F00306022E13D1CF0802F136
:10062000200656F827004E07F70E0F26BE40B043AF
:100630004F07FF0E1E69BE403043CF0802F120066F
:1006400046F8270010684F000326BE40B0431E79CD
:1006500006F003064F00BE40304310605E6806F4AB
:100660004036002E76D000BF002600963C4E3668FD
:1006700046F480463A4F3E603E46366806F4804671
:10068000009600BF00BF374E8F0856F827008E0730
:10069000370F0F26BE40B043334EB24202D1002680
:1006A00024E057E0314EB24201D101261EE0304E27
:1006B000B24201D1022619E02E4EB24201D10326E8
:1006C00014E02D4EB24201D104260FE02B4EB2426F
:1006D00001D105260AE02A4EB24201D1062605E0E4
:1006E000284EB24201D1072600E008268F073F0FAF
:1006F000BE4030431B4E8F0846F82700224E30681C
:10070000A0435E6806F4801606B120431E4E30609A
:10071000361D3068A0435E6806F4001606B120431B
:10072000194E361D3060184E361F3068A0435E6883
:1007300006F4003606B12043134E361F3060361FD4
:100740003068A0435E6806F4803606B120430E4E42
:10075000083E3060491C1029FFF426AFF8BD0000A8
:1007600044380240083801400000024000040240C2
:1007700000080240000C0240001002400014024039
:1007800000180240001C0240083C0140014800687B
:10079000704700000C0000200348006803490978F6
:1007A00008440149086070470C0000201400002034
:1007B00010B50D48006840F400700B490860084609
:1007C000006840F4806008600846006840F480706B
:1007D0000860032000F092F80F2000F007F800F006
:1007E0002BF8002010BD0000003C024070B504460C
:1007F0000E4800784FF47A71B1FBF0F00C490968AB
:10080000B1FBF0F5284600F01BFC08B1012070BDDB
:10081000102C07D200222146501E00F031F8054866
:10082000046001E00120F2E70020F0E7140000205E
:10083000180000201000002008B500BF0020009024
:100840000E48006840F480400C4908600846006883
:1008500000F48040009000BF00BF00BF0020009067
:10086000081F006840F08050091F086008460068B3
:1008700000F08050009000BF00BF08BD4438024027
:100880002DE9F05F80460D461646002700F0DCFF9C
:10089000074639462A46334601F00700C0F1070AE9
:1008A000BAF1040F02D94FF0040A01E0C0F1070ABF
:1008B000D14600F1040ABAF1070F02D24FF0000A44
:1008C00001E0A0F1030AD4464FF0010A0AFA09FA3E
:1008D000AAF1010A0AEA020A0AFA0CFA4FF0010B1D
:1008E0000BFA0CFBABF1010B0BEA030B4AEA0B040E
:1008F0002146404600F0B0FFBDE8F09F00BF00F089
:100900000702064B19684FF6FF031940044B0B43CF
:1009100043EA0221014B196000BF70470CED00E073
:100920000000FA0570B504460D460CB9012070BDF3
:100930005848006800F00700A84209D255490D70D8
:100940000846006800F00700A84201D00120EEE749
:10095000207800F0020002281DD1207800F0040069
:10096000042805D14C48006840F4E0504A4908602A
:10097000207800F00800082805D14748006840F4B6
:100980006040454908604448006820F0F000A168D4
:10099000084341490860207800F00100A8B360686E
:1009A000012807D13C4808380068C0F34040B8B976
:1009B0000120BCE76068022802D06068032807D1E4
:1009C000354808380068C0F3406048B90120AEE7F8
:1009D000314808380068C0F3400008B90120A6E794
:1009E0002D48006820F00300616808432A49086028
:1009F000FFF7CCFE064609E0FFF7C8FE801B41F278
:100A00008831884202D9032091E707E02248006834
:100A100000F00C006168B0EB810FEDD11D4800685B
:100A200000F00700A84209D91A490D70084600686D
:100A300000F00700A84201D0012078E7207800F0FC
:100A40000400042807D11448006820F4E050E1684D
:100A5000084311490860207800F00800082808D1F0
:100A60000D48006820F46040216940EAC1000A494D
:100A7000086000F03FF808490968C1F30311074A0C
:100A8000515CC8400649086006480068FFF7AEFEA2
:100A900000204CE7003C0240083802401C1C0008C3
:100AA0001800002010000020014800687047000076
:100AB0001800002000B5FFF7F7FF04490968C1F3EB
:100AC0008221034A515CC84000BD00000838024042
:100AD0002C1C000800B5FFF7E7FF04490968C1F3C3
:100AE0004231034A515CC84000BD00000838024052
:100AF0002C1C00082DE9F047002400250026A14603
:100B00002548006800F00C0020B1042805D0082812
:100B10003AD105E0DFF8849039E0DFF8849036E0E0
:100B20001D48001F006800F03F041B48001F0068BC
:100B300000F4800078B11A481749091F0968C1F309
:100B40008811A0FB01700146224600233846FFF7BA
:100B50008BFB05460EE011480F49091F0968C1F3D8
:100B60008811A0FB01700146224600233846FFF79A
:100B70007BFB05460848001F0068C0F30140401C8D
:100B80004600B5FBF6F902E0DFF8109000BF00BFA9
:100B90004846BDE8F0870000083802400024F40011
:100BA00040787D01F8B504460CB90120F8BD2078E5
:100BB00000F00100002874D0F948006800F00C0033
:100BC00004280DD0F648006800F00C00082813D166
:100BD000F348001F006800F48000B0F5800F0BD1CF
:100BE000EF4808380068C0F34040002859D06068DA
:100BF000002856D10120D9E700BF6068B0F5803FDA
:100C000008D1E7480838006840F48030E4490839E2
:100C100008601EE06068B0F5A02F0DD1E0480838EC
:100C2000006840F48020DE49083908600846006802
:100C300040F4803008600CE0D9480838006820F49F
:100C40008030D749083908600846006820F48020C1
:100C5000086000BF606890B1FFF798FD054606E0A8
:100C6000FFF794FD401B642801D903209EE7CC4880
:100C700008380068C0F340400028F1D011E0FFF7C9
:100C800085FD054606E0FFF781FD401B642801D97C
:100C900003208BE7C24808380068C0F340400028B2
:100CA000F1D1207800F0020002285FD1BC48006832
:100CB00000F00C0058B1BA48006800F00C00082899
:100CC0001CD1B748001F006800F48000B0B9B448D8
:100CD00008380068C0F3400020B1E068012801D066
:100CE000012063E7AE480838006820F0F800216969
:100CF00040EAC100AA490839086037E0E06800B35B
:100D00000120A8490860FFF741FD054606E0FFF70E
:100D10003DFD401B022801D9032047E7A0480838C1
:100D20000068C0F340000028F1D09D4808380068F2
:100D300020F0F800216940EAC100994908390860AB
:100D400014E0002097490860FFF720FD054606E003
:100D5000FFF71CFD401B022801D9032026E790481D
:100D600008380068C0F340000028F1D1207800F076
:100D7000080008282CD16069A8B101208A490860C0
:100D8000FFF704FD054606E0FFF700FD401B0228C3
:100D900001D903200AE782486C300068C0F34000A4
:100DA0000028F1D014E000207F490860FFF7EEFC36
:100DB000054606E0FFF7EAFC401B022801D90320A4
:100DC000F4E677486C300068C0F340000028F1D1A9
:100DD000207800F00400042870D1002770483830D3
:100DE000006800F0805090B900BF002000906C486F
:100DF0003830006840F08050694938310860084652
:100E0000006800F08050009000BF00BF01276748D5
:100E1000006800F48070B0B96448006840F48070E5
:100E200062490860FFF7B2FC054606E0FFF7AEFC3A
:100E3000401B022801D90320B8E65C48006800F492
:100E400080700028F2D000BFA068012808D1544863
:100E50006830006840F001005149683108601DE0C9
:100E6000A06805280DD14E486830006840F00400A5
:100E70004B49683108600846006840F0010008608E
:100E80000CE047486830006820F0010044496831B0
:100E900008600846006820F00400086000BFA068F1
:100EA000A8B1FFF773FC054609E0FFF76FFC401B94
:100EB00041F28831884202D9032077E626E038489B
:100EC00068300068C0F340000028EED013E0FFF760
:100ED0005DFC054608E0FFF759FC401B41F28831F4
:100EE000884201D9032061E62D4868300068C0F3CC
:100EF00040000028EFD1012F07D129483830006881
:100F000020F0805026493831086000BFA0690028D1
:100F100045D02348006800F00C0008285DD0A06987
:100F2000022845D100201F490866FFF72FFC05461F
:100F300006E0FFF72BFC401B022801D9032035E611
:100F4000174808380068C0F340600028F1D1D4E9A0
:100F500007010843616A40EA81110122A06AC2EBDD
:100F6000500041EA00412C20005D41EA00600C493C
:100F7000091F086001200B490866FFF707FC0546BA
:100F800006E0FFF703FC401B022801D903200DE611
:100F9000034808380068C0F340600028F1D049E0F9
:100FA0000838024000004742800E4742007000406F
:100FB000002021490866FFF7E9FB054606E0FFF738
:100FC000E5FB401B022801D90320EFE51B48006820
:100FD000C0F340600028F2D12CE0A069012800D1C4
:100FE000E4E51648001D0668A069012820D006F433
:100FF0008001E06981421BD106F03F01206A8142F5
:1010000016D147F6C0703040616AB0EB811F0FD136
:1010100006F440310122A06AC2EB5000B1EB004F50
:1010200006D106F070612C20005DB1EB006F01D09D
:101030000120BBE50020B9E500004742003802402E
:1010400070B504462546681EB0F1807F01D30120AB
:101050000FE0681E4FF0E02148610F214FF0FF3094
:1010600000F0FAFB00204FF0E021886107200861C2
:10107000002070BD10B504460CB9012010BDA06958
:1010800000B100E000BF94F8410028B9002084F8C6
:101090004000204600F02AF8242084F8410020680F
:1010A000C06820F400502168C860204600F06EFA45
:1010B0002068006920F49040216808612068406938
:1010C00020F02A00216848612068C06840F4005080
:1010D0002168C86000206064202084F8410084F802
:1010E00042000020606300BFC8E7000010B586B072
:1010F0000446142101A8FFF79FF937492068884268
:1011000031D100BF002000903448006840F010004A
:10111000324908600846006800F01000009000BFE7
:1011200000BF00BF002000902C481438006840F039
:1011300001002A49143908600846006800F00100DF
:10114000009000BF00BF4FF4C060019002200290E9
:1011500000200390032004900720059001A9204857
:10116000FFF71AFA36E01F492068884232D100BFE3
:10117000002000901948001F006840F480201749A3
:10118000091F08600846006800F48020009000BF36
:1011900000BF00BF0020009010481438006840F0E5
:1011A00002000E49143908600846006800F0020089
:1011B000009000BF00BF4FF44060019002200290F9
:1011C00000200390032004900720059001A9064801
:1011D000FFF7E2F906B010BD0010014044380240AC
:1011E0000000024000480040000402402DE9F84F92
:1011F00004460E46174699464FF0000A94F84200FE
:10120000202852D106B117B90120BDE8F88F00207F
:101210006064222084F8420000202063FFF7B6FAC1
:101220008246A785E785A068B0F5805F04D1206974
:1012300010B90025B04602E035464FF000082CE01A
:101240005346002220212046CDF8009000F0B4FA49
:1012500020B1202084F842000320D6E745B9206859
:101260004068C0F30800A8F8000008F1020811E087
:10127000A068B0F5805F03D0A06828B9206918B9CC
:1012800020684068287004E02068406800F07F0013
:1012900028706D1CE08D401EE085E08D0028CFD1C8
:1012A000202084F842000020AFE70220ADE72DE9BE
:1012B000F84F04460E46174699464FF0000A94F838
:1012C0004100202850D106B117B90120BDE8F88FA0
:1012D00000206064212084F84100FFF757FA82461D
:1012E000A784E784A068B0F5805F04D1206910B9B5
:1012F0000025B04602E035464FF000081EE0534698
:10130000002280212046CDF8009000F055FA20B14F
:10131000202084F841000320D8E745B9B8F8000040
:10132000C0F308002168486008F1020803E028784B
:10133000216848606D1CE08C401EE084E08C002831
:10134000DDD15346002240212046CDF8009000F028
:1013500033FA20B1202084F841000320B6E7202092
:1013600084F841000020B1E70220AFE700BFFEE7AC
:1013700008B500BF002000901548006840F08000CC
:10138000134908600846006800F08000009000BF24
:1013900000BF00BF002000900846006840F0020037
:1013A00008600846006800F00200009000BF00BF1F
:1013B00000BF002000900846006840F0010008606F
:1013C0000846006800F00100009000BF00BF08BDA3
:1013D0003038024010B50B480B4908604FF4E1303B
:1013E0004860002108488160C16001610C214161B1
:1013F00000218161C161FFF73DFE08B1FFF7B4F83C
:1014000010BD0000001001401C00002010B50B486A
:101410000B4908604FF4E1304860002108488160C2
:10142000C16001610C21416100218161C161FFF74F
:1014300021FE08B1FFF798F810BD000000480040F9
:101440006400002000BFFEE700BFFEE77047704762
:1014500010B5FFF7A1F910BD00B593B0302107A872
:10146000FEF7EAFF142102A8FEF7E6FF00BF002006
:1014700001902448006840F08050224908600846E6
:10148000006800F08050019000BF00BF00BF002046
:1014900001901D48006840F480401B4908600846E0
:1014A000006800F48040019000BF00BF0120079059
:1014B0000004089002200D9041050E9119210F9112
:1014C0004FF4A8711091022111910421129107A8E3
:1014D000FFF768FB08B1FFF747F80F2002900220E2
:1014E0000390002004904FF4A05005904FF48050DA
:1014F0000690052102A8FFF715FA08B1FFF734F8A6
:1015000013B000BD4038024000700040034800683E
:1015100040F47000014908607047000088ED00E069
:1015200000BF00BF02680C3252E8002F22F4907115
:1015300002680C3242E80013002BF3D100BF00BF59
:1015400000BF0268143252E8002F22F00101026845
:10155000143242E80013002BF3D100BF016B0129C4
:101560000ED100BF00BF02680C3252E8002F22F0FB
:10157000100102680C3242E80013002BF3D100BFC7
:10158000202180F842100021016370472DE9F84FB7
:1015900004462068006920F44050E168084321684F
:1015A00008612169A068084361690843E16908434B
:1015B00000902068C06849F20C6188430099084394
:1015C0002168C8602068406920F44070A169084320
:1015D0002168486176492068884203D075492068AF
:1015E000884203D1FFF776FA814602E0FFF762FAFC
:1015F0008146E069B0F5004F6CD102206168A0FB24
:10160000015003461920A9FB007001462A463846BE
:10161000FEF72AFE6421B0FBF1F04FEA001A022027
:101620006168A0FB01510B461920A9FB00712A46F5
:101630003846FEF719FE834602206168A0FB015080
:1016400003461920A9FB00712A463846FEF70CFE16
:101650006421B0FBF1F000EBC00101EB0010ABEB3B
:101660008000322101EBC0006421B0FBF1F000F0FA
:10167000F8000AEB400A02206168A0FB0150034613
:101680001920A9FB007001462A463846FEF7ECFDFA
:10169000834602206168A0FB015003461920A9FB84
:1016A00000712A463846FEF7DFFD6421B0FBF1F0F9
:1016B00000EBC00101EB0010ABEB8000322101EB2D
:1016C000C0006421B0FBF1F000F007005044216835
:1016D00088606AE004206168A0FB0150034619207D
:1016E000A9FB007001462A463846FEF7BDFD82463A
:1016F00004206168A0FB015003461920A9FB00707B
:1017000001462A463846FEF7AFFD6421B0FBF1F0F2
:1017100000EBC00101EB0010AAEB8000322101EBCD
:1017200000106421B0FBF1F000F0F00A04206168C1
:10173000A0FB017003461920A9FB00513A46284638
:10174000FEF792FD6421B0FBF1F00AEB001A0420D1
:101750006168A0FB01510B461920A9FB00712A46C4
:101760003846FEF781FD834604206168A0FB0150E6
:1017700003461920A9FB007001462A463846FEF7A9
:1017800073FD6421B0FBF1F000EBC00101EB001030
:10179000ABEB8000322101EB00106421B0FBF1F0D3
:1017A00000F00F00504421688860BDE8F88F000009
:1017B00000100140001401402DE9F84304460D4695
:1017C00017469846089E31E0701C70B3FEF7DEFFA6
:1017D000A0EB0800B04200D816B90320BDE8F8839A
:1017E0002068C06800F00400F8B1802D1ED0402DA4
:1017F0001CD020680068C0F3C000B0B100BF00205A
:10180000009020680068009020684068009000BF49
:1018100000BF2046FFF784FE0820606400BF002060
:1018200084F8400000BF0120D8E7FFE72068006887
:101830002840A84201D1012000E00020B842C3D0D6
:101840000020CBE700BFFEE702480068C0F302209B
:10185000704700000CED00E010B5002804DB0A071B
:10186000130E054A135406E00A07140E034A00F04B
:101870000F031B1FD45410BD00E400E018ED00E07E
:10188000FEF796FFFFF7E8FDFFF772FDFFF7A2FDF9
:10189000FFF7BCFD00BF00F089F90FE04FF4967030
:1018A00000F074F90A20FEF763FE4FF496710448C5
:1018B00000F086F94FF4FA70FEF75AFEEEE70000EA
:1018C00004000020014609B900207047032901D116
:1018D0000320FAE70520F8E730B502460C464FF63C
:1018E000FF71002300250AB9002030BD002312E05B
:1018F000D05C414000250AE001F0010020B14AF22D
:10190000010080EA610100E04910681CC5B2082DA1
:10191000F2D3581C83B2A342EADB0846E5E77047DE
:101920002DE9FF4FC7B00E4614461F46DDF854B1EF
:10193000DDF850A1002046904FF4807106A8FEF714
:101940007BFD4FF0000900200590002524B17D2C7F
:1019500002D80FB1A24503DA01204BB0BDE8F08FE9
:10196000300A8DF81801F0B28DF81901200A8DF8AF
:101970001A01E0B28DF81B01052000EB44001FFAAC
:1019800080F905A806A9042346AACDE9020BCDE9F2
:1019900000191946479800F027F88046B8F1000F63
:1019A00001D04046D9E7BDF81400484505D19DF85F
:1019B0001A006106090E884201D00420CDE70025F7
:1019C0000DE06800001D06A9095C6800C01C06AA9D
:1019D000105C41EA002027F81500681C85B2A5427A
:1019E000EFDB0020B9E700002DE9FF4F83B0074689
:1019F000884610AC94E8300600200290834624B15B
:101A0000B9F1000F01D0052D03D2012007B0BDE8C8
:101A1000F08FCDF800A041463846DDE9052300F0FF
:101A200035F806460EB13046F0E753462A462146C1
:101A30001548FFF7DBFB01900198FFF743FF0646CF
:101A40000EB13046E2E7A9F800502078B84204D140
:101A5000607800F07F00404501D00420D6E7A81E42
:101A6000215C681E205C41EA00200290A81E81B221
:101A70002046FFF731FF83460298584501D00220E7
:101A8000C4E70020C2E70000640000202DE9F04F09
:101A9000C1B00746884616461C46DDF828A14FF41B
:101AA000807101A8FEF7C8FC0025A94624B11EB923
:101AB000012041B0BDE8F08F201D80B2B0F5807FDD
:101AC00001D90120F5E78DF804708DF805802CB15F
:101AD000224631460DF10600FEF769FCA01C85B2D6
:101AE000294601A8FFF7F8FE814601A901F80590F3
:101AF0004FEA192101AA681C1154A81C85B253464B
:101B00002A4601A90348FFF7D2FB83465846FFF750
:101B1000D9FECEE7640000202DE9F04188B0804670
:101B20000C4615461E46002007900590069004902E
:101B3000200A8DF81C00E0B28DF81D00280A8DF8EF
:101B40001E00E8B28DF81F0004A8082105AA04238E
:101B5000CDE90206CDE9002107AA06214046FFF79C
:101B600043FF07461FB1384608B0BDE8F081BDF815
:101B70001000082805D1042207A9881FFEF7EBFBF7
:101B800008B10420F0E70020EEE7000010B504469D
:101B900005480088401C0449088021460248008806
:101BA00000F01EF810BD00000000002010B5FFF787
:101BB000B6FE00200149088010BD00000000002092
:101BC0007CB504460D460CB901207CBD012023469E
:101BD000024641F28831CDE90005FFF7A1FEF4E7A6
:101BE00070B504460D46044804802A46214641F259
:101BF000707000F003F870BD0000002070B504465E
:101C00000D46164633462A4621460120FFF784FF3B
:101C100070BD4FF04070E1EE100A70470000000008
:101C2000000000000102030406070809000000008C
:101C300001020304541C0008000000201C000000E6
:101C4000C4010008701C00081C000020F4060000FD
:101C5000E001000800000000640000000000000037
:101C60000000000010000000010000000024F4004B
:040000050800018965
:00000001FF
